{
  "_format": "hh-sol-artifact-1",
  "contractName": "MyEpicNFT",
  "sourceName": "contracts/MyEpicNFT.sol",
  "abi": [
    {
      "inputs": [],
      "stateMutability": "nonpayable",
      "type": "constructor"
    },
    {
      "anonymous": false,
      "inputs": [
        {
          "indexed": true,
          "internalType": "address",
          "name": "owner",
          "type": "address"
        },
        {
          "indexed": true,
          "internalType": "address",
          "name": "approved",
          "type": "address"
        },
        {
          "indexed": true,
          "internalType": "uint256",
          "name": "tokenId",
          "type": "uint256"
        }
      ],
      "name": "Approval",
      "type": "event"
    },
    {
      "anonymous": false,
      "inputs": [
        {
          "indexed": true,
          "internalType": "address",
          "name": "owner",
          "type": "address"
        },
        {
          "indexed": true,
          "internalType": "address",
          "name": "operator",
          "type": "address"
        },
        {
          "indexed": false,
          "internalType": "bool",
          "name": "approved",
          "type": "bool"
        }
      ],
      "name": "ApprovalForAll",
      "type": "event"
    },
    {
      "anonymous": false,
      "inputs": [
        {
          "indexed": false,
          "internalType": "address",
          "name": "sender",
          "type": "address"
        },
        {
          "indexed": false,
          "internalType": "uint256",
          "name": "tokenId",
          "type": "uint256"
        }
      ],
      "name": "NewEpicNFTMinted",
      "type": "event"
    },
    {
      "anonymous": false,
      "inputs": [
        {
          "indexed": true,
          "internalType": "address",
          "name": "from",
          "type": "address"
        },
        {
          "indexed": true,
          "internalType": "address",
          "name": "to",
          "type": "address"
        },
        {
          "indexed": true,
          "internalType": "uint256",
          "name": "tokenId",
          "type": "uint256"
        }
      ],
      "name": "Transfer",
      "type": "event"
    },
    {
      "inputs": [
        {
          "internalType": "address",
          "name": "to",
          "type": "address"
        },
        {
          "internalType": "uint256",
          "name": "tokenId",
          "type": "uint256"
        }
      ],
      "name": "approve",
      "outputs": [],
      "stateMutability": "nonpayable",
      "type": "function"
    },
    {
      "inputs": [
        {
          "internalType": "address",
          "name": "owner",
          "type": "address"
        }
      ],
      "name": "balanceOf",
      "outputs": [
        {
          "internalType": "uint256",
          "name": "",
          "type": "uint256"
        }
      ],
      "stateMutability": "view",
      "type": "function"
    },
    {
      "inputs": [
        {
          "internalType": "uint256",
          "name": "tokenId",
          "type": "uint256"
        }
      ],
      "name": "getApproved",
      "outputs": [
        {
          "internalType": "address",
          "name": "",
          "type": "address"
        }
      ],
      "stateMutability": "view",
      "type": "function"
    },
    {
      "inputs": [
        {
          "internalType": "address",
          "name": "owner",
          "type": "address"
        },
        {
          "internalType": "address",
          "name": "operator",
          "type": "address"
        }
      ],
      "name": "isApprovedForAll",
      "outputs": [
        {
          "internalType": "bool",
          "name": "",
          "type": "bool"
        }
      ],
      "stateMutability": "view",
      "type": "function"
    },
    {
      "inputs": [],
      "name": "makeAnEpicNFT",
      "outputs": [],
      "stateMutability": "nonpayable",
      "type": "function"
    },
    {
      "inputs": [],
      "name": "name",
      "outputs": [
        {
          "internalType": "string",
          "name": "",
          "type": "string"
        }
      ],
      "stateMutability": "view",
      "type": "function"
    },
    {
      "inputs": [
        {
          "internalType": "uint256",
          "name": "tokenId",
          "type": "uint256"
        }
      ],
      "name": "ownerOf",
      "outputs": [
        {
          "internalType": "address",
          "name": "",
          "type": "address"
        }
      ],
      "stateMutability": "view",
      "type": "function"
    },
    {
      "inputs": [
        {
          "internalType": "uint256",
          "name": "tokenId",
          "type": "uint256"
        }
      ],
      "name": "pickRandomColor",
      "outputs": [
        {
          "internalType": "string",
          "name": "",
          "type": "string"
        }
      ],
      "stateMutability": "view",
      "type": "function"
    },
    {
      "inputs": [
        {
          "internalType": "uint256",
          "name": "tokenId",
          "type": "uint256"
        }
      ],
      "name": "pickRandomFirstWord",
      "outputs": [
        {
          "internalType": "string",
          "name": "",
          "type": "string"
        }
      ],
      "stateMutability": "view",
      "type": "function"
    },
    {
      "inputs": [
        {
          "internalType": "uint256",
          "name": "tokenId",
          "type": "uint256"
        }
      ],
      "name": "pickRandomSecondWord",
      "outputs": [
        {
          "internalType": "string",
          "name": "",
          "type": "string"
        }
      ],
      "stateMutability": "view",
      "type": "function"
    },
    {
      "inputs": [
        {
          "internalType": "uint256",
          "name": "tokenId",
          "type": "uint256"
        }
      ],
      "name": "pickRandomThirdWord",
      "outputs": [
        {
          "internalType": "string",
          "name": "",
          "type": "string"
        }
      ],
      "stateMutability": "view",
      "type": "function"
    },
    {
      "inputs": [
        {
          "internalType": "address",
          "name": "from",
          "type": "address"
        },
        {
          "internalType": "address",
          "name": "to",
          "type": "address"
        },
        {
          "internalType": "uint256",
          "name": "tokenId",
          "type": "uint256"
        }
      ],
      "name": "safeTransferFrom",
      "outputs": [],
      "stateMutability": "nonpayable",
      "type": "function"
    },
    {
      "inputs": [
        {
          "internalType": "address",
          "name": "from",
          "type": "address"
        },
        {
          "internalType": "address",
          "name": "to",
          "type": "address"
        },
        {
          "internalType": "uint256",
          "name": "tokenId",
          "type": "uint256"
        },
        {
          "internalType": "bytes",
          "name": "_data",
          "type": "bytes"
        }
      ],
      "name": "safeTransferFrom",
      "outputs": [],
      "stateMutability": "nonpayable",
      "type": "function"
    },
    {
      "inputs": [
        {
          "internalType": "address",
          "name": "operator",
          "type": "address"
        },
        {
          "internalType": "bool",
          "name": "approved",
          "type": "bool"
        }
      ],
      "name": "setApprovalForAll",
      "outputs": [],
      "stateMutability": "nonpayable",
      "type": "function"
    },
    {
      "inputs": [
        {
          "internalType": "bytes4",
          "name": "interfaceId",
          "type": "bytes4"
        }
      ],
      "name": "supportsInterface",
      "outputs": [
        {
          "internalType": "bool",
          "name": "",
          "type": "bool"
        }
      ],
      "stateMutability": "view",
      "type": "function"
    },
    {
      "inputs": [],
      "name": "symbol",
      "outputs": [
        {
          "internalType": "string",
          "name": "",
          "type": "string"
        }
      ],
      "stateMutability": "view",
      "type": "function"
    },
    {
      "inputs": [
        {
          "internalType": "uint256",
          "name": "tokenId",
          "type": "uint256"
        }
      ],
      "name": "tokenURI",
      "outputs": [
        {
          "internalType": "string",
          "name": "",
          "type": "string"
        }
      ],
      "stateMutability": "view",
      "type": "function"
    },
    {
      "inputs": [
        {
          "internalType": "address",
          "name": "from",
          "type": "address"
        },
        {
          "internalType": "address",
          "name": "to",
          "type": "address"
        },
        {
          "internalType": "uint256",
          "name": "tokenId",
          "type": "uint256"
        }
      ],
      "name": "transferFrom",
      "outputs": [],
      "stateMutability": "nonpayable",
      "type": "function"
    }
  ],
  "bytecode": "0x608060405260405180610100016040528060d38152602001620050f460d391396008908051906020019062000036929190620010d5565b50604051806080016040528060568152602001620051c7605691396009908051906020019062000068929190620010d5565b506040518061022001604052806040518060400160405280600581526020017f436c65617200000000000000000000000000000000000000000000000000000081525081526020016040518060400160405280600781526020017f537472696e67790000000000000000000000000000000000000000000000000081525081526020016040518060400160405280600581526020017f4a7569637900000000000000000000000000000000000000000000000000000081525081526020016040518060400160405280600581526020017f42656e647900000000000000000000000000000000000000000000000000000081525081526020016040518060400160405280600581526020017f46616e637900000000000000000000000000000000000000000000000000000081525081526020016040518060400160405280600681526020017f537469636b79000000000000000000000000000000000000000000000000000081525081526020016040518060400160405280600581526020017f54616e677900000000000000000000000000000000000000000000000000000081525081526020016040518060400160405280600681526020017f537765617479000000000000000000000000000000000000000000000000000081525081526020016040518060400160405280600881526020017f467265657a696e6700000000000000000000000000000000000000000000000081525081526020016040518060400160405280600581526020017f536f6c696400000000000000000000000000000000000000000000000000000081525081526020016040518060400160405280600381526020017f54616e000000000000000000000000000000000000000000000000000000000081525081526020016040518060400160405280600581526020017f4375726c7900000000000000000000000000000000000000000000000000000081525081526020016040518060400160405280600681526020017f467279696e67000000000000000000000000000000000000000000000000000081525081526020016040518060400160405280600a81526020017f556269717569746f75730000000000000000000000000000000000000000000081525081526020016040518060400160405280600a81526020017f4d656e646163696f75730000000000000000000000000000000000000000000081525081526020016040518060400160405280600781526020017f467572746976650000000000000000000000000000000000000000000000000081525081526020016040518060400160405280600581526020017f4865617679000000000000000000000000000000000000000000000000000000815250815250600a9060116200047092919062001166565b506040518061024001604052806040518060400160405280600781526020017f44656c657465640000000000000000000000000000000000000000000000000081525081526020016040518060400160405280600581526020017f416e696d6500000000000000000000000000000000000000000000000000000081525081526020016040518060400160405280600781526020017f4d616d6173616e0000000000000000000000000000000000000000000000000081525081526020016040518060400160405280600981526020017f436f72706f2d526174000000000000000000000000000000000000000000000081525081526020016040518060400160405280600781526020017f4275727269746f0000000000000000000000000000000000000000000000000081525081526020016040518060400160405280600881526020017f4c656767696e677300000000000000000000000000000000000000000000000081525081526020016040518060400160405280600481526020017f4c6561660000000000000000000000000000000000000000000000000000000081525081526020016040518060400160405280600581526020017f4e696e6a6100000000000000000000000000000000000000000000000000000081525081526020016040518060400160405280600881526020017f506172616e6f696100000000000000000000000000000000000000000000000081525081526020016040518060400160405280600481526020017f4c6164790000000000000000000000000000000000000000000000000000000081525081526020016040518060400160405280600581526020017f526f626f7400000000000000000000000000000000000000000000000000000081525081526020016040518060400160405280600381526020017f426174000000000000000000000000000000000000000000000000000000000081525081526020016040518060400160405280600581526020017f506170657200000000000000000000000000000000000000000000000000000081525081526020016040518060400160405280600481526020017f4c6f72640000000000000000000000000000000000000000000000000000000081525081526020016040518060400160405280600781526020017f4361707461696e0000000000000000000000000000000000000000000000000081525081526020016040518060400160405280600981526020017f4d696c6b7368616b65000000000000000000000000000000000000000000000081525081526020016040518060400160405280600381526020017f487574000000000000000000000000000000000000000000000000000000000081525081526020016040518060400160405280600381526020017f426f780000000000000000000000000000000000000000000000000000000000815250815250600b906012620008b3929190620011cd565b506040518061028001604052806040518060400160405280600681526020017f4275746c6572000000000000000000000000000000000000000000000000000081525081526020016040518060400160405280600581526020017f457468657200000000000000000000000000000000000000000000000000000081525081526020016040518060400160405280600481526020017f536f6c6f0000000000000000000000000000000000000000000000000000000081525081526020016040518060400160405280600381526020017f437570000000000000000000000000000000000000000000000000000000000081525081526020016040518060400160405280600681526020017f42756c6c6574000000000000000000000000000000000000000000000000000081525081526020016040518060400160405280600681526020017f536869656c64000000000000000000000000000000000000000000000000000081525081526020016040518060400160405280600781526020017f436f61737465720000000000000000000000000000000000000000000000000081525081526020016040518060400160405280600881526020017f43686f6f63686f6f00000000000000000000000000000000000000000000000081525081526020016040518060400160405280600781526020017f4269706c616e650000000000000000000000000000000000000000000000000081525081526020016040518060400160405280600481526020017f547265650000000000000000000000000000000000000000000000000000000081525081526020016040518060400160405280600781526020017f4379636c6973740000000000000000000000000000000000000000000000000081525081526020016040518060400160405280600481526020017f476f74680000000000000000000000000000000000000000000000000000000081525081526020016040518060400160405280600481526020017f537461720000000000000000000000000000000000000000000000000000000081525081526020016040518060400160405280600381526020017f446f67000000000000000000000000000000000000000000000000000000000081525081526020016040518060400160405280600581526020017f4b6974747900000000000000000000000000000000000000000000000000000081525081526020016040518060400160405280600481526020017f446f6c6c0000000000000000000000000000000000000000000000000000000081525081526020016040518060400160405280600381526020017f536b79000000000000000000000000000000000000000000000000000000000081525081526020016040518060400160405280600481526020017f436f64650000000000000000000000000000000000000000000000000000000081525081526020016040518060400160405280600481526020017f42616e6b0000000000000000000000000000000000000000000000000000000081525081526020016040518060400160405280600681526020017f427562626c650000000000000000000000000000000000000000000000000000815250815250600c90601462000d6c92919062001234565b506040518060e001604052806040518060400160405280600381526020017f726564000000000000000000000000000000000000000000000000000000000081525081526020016040518060400160405280600681526020017f79656c6c6f77000000000000000000000000000000000000000000000000000081525081526020016040518060400160405280600581526020017f626c61636b00000000000000000000000000000000000000000000000000000081525081526020016040518060400160405280600581526020017f776869746500000000000000000000000000000000000000000000000000000081525081526020016040518060400160405280600481526020017f626c75650000000000000000000000000000000000000000000000000000000081525081526020016040518060400160405280600581526020017f677265656e00000000000000000000000000000000000000000000000000000081525081526020016040518060400160405280600681526020017f6f72616e67650000000000000000000000000000000000000000000000000000815250815250600d90600762000f259291906200129b565b5034801562000f3357600080fd5b506040518060400160405280600981526020017f5371756172654e465400000000000000000000000000000000000000000000008152506040518060400160405280600681526020017f5351554152450000000000000000000000000000000000000000000000000000815250816000908051906020019062000fb8929190620010d5565b50806001908051906020019062000fd1929190620010d5565b50505062001003604051806060016040528060278152602001620050cd602791396200100960201b6200141a1760201c565b620014bc565b620010a981604051602401620010209190620013d0565b6040516020818303038152906040527f41304fac000000000000000000000000000000000000000000000000000000007bffffffffffffffffffffffffffffffffffffffffffffffffffffffff19166020820180517bffffffffffffffffffffffffffffffffffffffffffffffffffffffff8381831617835250505050620010ac60201b60201c565b50565b60008151905060006a636f6e736f6c652e6c6f679050602083016000808483855afa5050505050565b828054620010e39062001446565b90600052602060002090601f01602090048101928262001107576000855562001153565b82601f106200112257805160ff191683800117855562001153565b8280016001018555821562001153579182015b828111156200115257825182559160200191906001019062001135565b5b50905062001162919062001302565b5090565b828054828255906000526020600020908101928215620011ba579160200282015b82811115620011b9578251829080519060200190620011a8929190620010d5565b509160200191906001019062001187565b5b509050620011c9919062001321565b5090565b82805482825590600052602060002090810192821562001221579160200282015b82811115620012205782518290805190602001906200120f929190620010d5565b5091602001919060010190620011ee565b5b50905062001230919062001321565b5090565b82805482825590600052602060002090810192821562001288579160200282015b828111156200128757825182908051906020019062001276929190620010d5565b509160200191906001019062001255565b5b50905062001297919062001321565b5090565b828054828255906000526020600020908101928215620012ef579160200282015b82811115620012ee578251829080519060200190620012dd929190620010d5565b5091602001919060010190620012bc565b5b509050620012fe919062001321565b5090565b5b808211156200131d57600081600090555060010162001303565b5090565b5b808211156200134557600081816200133b919062001349565b5060010162001322565b5090565b508054620013579062001446565b6000825580601f106200136b57506200138c565b601f0160209004906000526020600020908101906200138b919062001302565b5b50565b60006200139c82620013f4565b620013a88185620013ff565b9350620013ba81856020860162001410565b620013c581620014ab565b840191505092915050565b60006020820190508181036000830152620013ec81846200138f565b905092915050565b600081519050919050565b600082825260208201905092915050565b60005b838110156200143057808201518184015260208101905062001413565b8381111562001440576000848401525b50505050565b600060028204905060018216806200145f57607f821691505b602082108114156200147657620014756200147c565b5b50919050565b7f4e487b7100000000000000000000000000000000000000000000000000000000600052602260045260246000fd5b6000601f19601f8301169050919050565b613c0180620014cc6000396000f3fe608060405234801561001057600080fd5b50600436106101165760003560e01c806370a08231116100a2578063b88d4fde11610071578063b88d4fde14610317578063c575757a14610333578063c87b56dd14610363578063de9d132f14610393578063e985e9c51461039d57610116565b806370a082311461027d57806395d89b41146102ad578063a22cb465146102cb578063b187301f146102e757610116565b806323b872dd116100e957806323b872dd146101b55780632de38d68146101d157806342842e0e14610201578063514dc8c61461021d5780636352211e1461024d57610116565b806301ffc9a71461011b57806306fdde031461014b578063081812fc14610169578063095ea7b314610199575b600080fd5b610135600480360381019061013091906126ad565b6103cd565b6040516101429190612e16565b60405180910390f35b6101536104af565b6040516101609190612e31565b60405180910390f35b610183600480360381019061017e91906126ff565b610541565b6040516101909190612d86565b60405180910390f35b6101b360048036038101906101ae9190612671565b6105c6565b005b6101cf60048036038101906101ca919061256b565b6106de565b005b6101eb60048036038101906101e691906126ff565b61073e565b6040516101f89190612e31565b60405180910390f35b61021b6004803603810190610216919061256b565b61085c565b005b610237600480360381019061023291906126ff565b61087c565b6040516102449190612e31565b60405180910390f35b610267600480360381019061026291906126ff565b61099a565b6040516102749190612d86565b60405180910390f35b61029760048036038101906102929190612506565b610a4c565b6040516102a49190613091565b60405180910390f35b6102b5610b04565b6040516102c29190612e31565b60405180910390f35b6102e560048036038101906102e09190612635565b610b96565b005b61030160048036038101906102fc91906126ff565b610d17565b60405161030e9190612e31565b60405180910390f35b610331600480360381019061032c91906125ba565b610e35565b005b61034d600480360381019061034891906126ff565b610e97565b60405161035a9190612e31565b60405180910390f35b61037d600480360381019061037891906126ff565b610fb5565b60405161038a9190612e31565b60405180910390f35b61039b611107565b005b6103b760048036038101906103b2919061252f565b611386565b6040516103c49190612e16565b60405180910390f35b60007f80ac58cd000000000000000000000000000000000000000000000000000000007bffffffffffffffffffffffffffffffffffffffffffffffffffffffff1916827bffffffffffffffffffffffffffffffffffffffffffffffffffffffff1916148061049857507f5b5e139f000000000000000000000000000000000000000000000000000000007bffffffffffffffffffffffffffffffffffffffffffffffffffffffff1916827bffffffffffffffffffffffffffffffffffffffffffffffffffffffff1916145b806104a857506104a7826114b3565b5b9050919050565b6060600080546104be90613325565b80601f01602080910402602001604051908101604052809291908181526020018280546104ea90613325565b80156105375780601f1061050c57610100808354040283529160200191610537565b820191906000526020600020905b81548152906001019060200180831161051a57829003601f168201915b5050505050905090565b600061054c8261151d565b61058b576040517f08c379a000000000000000000000000000000000000000000000000000000000815260040161058290612ff1565b60405180910390fd5b6004600083815260200190815260200160002060009054906101000a900473ffffffffffffffffffffffffffffffffffffffff169050919050565b60006105d18261099a565b90508073ffffffffffffffffffffffffffffffffffffffff168373ffffffffffffffffffffffffffffffffffffffff161415610642576040517f08c379a000000000000000000000000000000000000000000000000000000000815260040161063990613051565b60405180910390fd5b8073ffffffffffffffffffffffffffffffffffffffff16610661611589565b73ffffffffffffffffffffffffffffffffffffffff161480610690575061068f8161068a611589565b611386565b5b6106cf576040517f08c379a00000000000000000000000000000000000000000000000000000000081526004016106c690612f31565b60405180910390fd5b6106d98383611591565b505050565b6106ef6106e9611589565b8261164a565b61072e576040517f08c379a000000000000000000000000000000000000000000000000000000000815260040161072590613071565b60405180910390fd5b610739838383611728565b505050565b6060600061077261074e84611984565b60405160200161075e9190612d20565b604051602081830303815290604052611b31565b9050600a805490508161078591906133d1565b9050600a81815481106107c1577f4e487b7100000000000000000000000000000000000000000000000000000000600052603260045260246000fd5b9060005260206000200180546107d690613325565b80601f016020809104026020016040519081016040528092919081815260200182805461080290613325565b801561084f5780601f106108245761010080835404028352916020019161084f565b820191906000526020600020905b81548152906001019060200180831161083257829003601f168201915b5050505050915050919050565b61087783838360405180602001604052806000815250610e35565b505050565b606060006108b061088c84611984565b60405160200161089c9190612d64565b604051602081830303815290604052611b31565b9050600d80549050816108c391906133d1565b9050600d81815481106108ff577f4e487b7100000000000000000000000000000000000000000000000000000000600052603260045260246000fd5b90600052602060002001805461091490613325565b80601f016020809104026020016040519081016040528092919081815260200182805461094090613325565b801561098d5780601f106109625761010080835404028352916020019161098d565b820191906000526020600020905b81548152906001019060200180831161097057829003601f168201915b5050505050915050919050565b6000806002600084815260200190815260200160002060009054906101000a900473ffffffffffffffffffffffffffffffffffffffff169050600073ffffffffffffffffffffffffffffffffffffffff168173ffffffffffffffffffffffffffffffffffffffff161415610a43576040517f08c379a0000000000000000000000000000000000000000000000000000000008152600401610a3a90612f71565b60405180910390fd5b80915050919050565b60008073ffffffffffffffffffffffffffffffffffffffff168273ffffffffffffffffffffffffffffffffffffffff161415610abd576040517f08c379a0000000000000000000000000000000000000000000000000000000008152600401610ab490612f51565b60405180910390fd5b600360008373ffffffffffffffffffffffffffffffffffffffff1673ffffffffffffffffffffffffffffffffffffffff168152602001908152602001600020549050919050565b606060018054610b1390613325565b80601f0160208091040260200160405190810160405280929190818152602001828054610b3f90613325565b8015610b8c5780601f10610b6157610100808354040283529160200191610b8c565b820191906000526020600020905b815481529060010190602001808311610b6f57829003601f168201915b5050505050905090565b610b9e611589565b73ffffffffffffffffffffffffffffffffffffffff168273ffffffffffffffffffffffffffffffffffffffff161415610c0c576040517f08c379a0000000000000000000000000000000000000000000000000000000008152600401610c0390612ef1565b60405180910390fd5b8060056000610c19611589565b73ffffffffffffffffffffffffffffffffffffffff1673ffffffffffffffffffffffffffffffffffffffff16815260200190815260200160002060008473ffffffffffffffffffffffffffffffffffffffff1673ffffffffffffffffffffffffffffffffffffffff16815260200190815260200160002060006101000a81548160ff0219169083151502179055508173ffffffffffffffffffffffffffffffffffffffff16610cc6611589565b73ffffffffffffffffffffffffffffffffffffffff167f17307eab39ab6107e8899845ad3d59bd9653f200f220920489ca2b5937696c3183604051610d0b9190612e16565b60405180910390a35050565b60606000610d4b610d2784611984565b604051602001610d379190612cfe565b604051602081830303815290604052611b31565b9050600b8054905081610d5e91906133d1565b9050600b8181548110610d9a577f4e487b7100000000000000000000000000000000000000000000000000000000600052603260045260246000fd5b906000526020600020018054610daf90613325565b80601f0160208091040260200160405190810160405280929190818152602001828054610ddb90613325565b8015610e285780601f10610dfd57610100808354040283529160200191610e28565b820191906000526020600020905b815481529060010190602001808311610e0b57829003601f168201915b5050505050915050919050565b610e46610e40611589565b8361164a565b610e85576040517f08c379a0000000000000000000000000000000000000000000000000000000008152600401610e7c90613071565b60405180910390fd5b610e9184848484611b64565b50505050565b60606000610ecb610ea784611984565b604051602001610eb79190612cdc565b604051602081830303815290604052611b31565b9050600c8054905081610ede91906133d1565b9050600c8181548110610f1a577f4e487b7100000000000000000000000000000000000000000000000000000000600052603260045260246000fd5b906000526020600020018054610f2f90613325565b80601f0160208091040260200160405190810160405280929190818152602001828054610f5b90613325565b8015610fa85780601f10610f7d57610100808354040283529160200191610fa8565b820191906000526020600020905b815481529060010190602001808311610f8b57829003601f168201915b5050505050915050919050565b6060610fc08261151d565b610fff576040517f08c379a0000000000000000000000000000000000000000000000000000000008152600401610ff690612fd1565b60405180910390fd5b600060066000848152602001908152602001600020805461101f90613325565b80601f016020809104026020016040519081016040528092919081815260200182805461104b90613325565b80156110985780601f1061106d57610100808354040283529160200191611098565b820191906000526020600020905b81548152906001019060200180831161107b57829003601f168201915b5050505050905060006110a9611bc0565b90506000815114156110bf578192505050611102565b6000825111156110f45780826040516020016110dc929190612bf9565b60405160208183030381529060405292505050611102565b6110fd84611bd7565b925050505b919050565b60006111136007611c7e565b905060006111208261073e565b9050600061112d83610d17565b9050600061113a84610e97565b9050600083838360405160200161115393929190612c1d565b6040516020818303038152906040529050600061116f8661087c565b9050600060088260098560405160200161118c9493929190612c4e565b60405160208183030381529060405290506111db6040518060400160405280601281526020017f0a2d2d2d2d2d2d2d2d2d2d2d2d2d2d2d2d2d000000000000000000000000000081525061141a565b6111e48161141a565b6112226040518060400160405280601281526020017f0a2d2d2d2d2d2d2d2d2d2d2d2d2d2d2d2d2d000000000000000000000000000081525061141a565b60006112568461123184611c8c565b604051602001611242929190612c97565b604051602081830303815290604052611c8c565b905060008160405160200161126b9190612d42565b60405160208183030381529060405290506112ba6040518060400160405280601281526020017f0a2d2d2d2d2d2d2d2d2d2d2d2d2d2d2d2d2d000000000000000000000000000081525061141a565b6112c38161141a565b6113016040518060400160405280601281526020017f0a2d2d2d2d2d2d2d2d2d2d2d2d2d2d2d2d2d000000000000000000000000000081525061141a565b61130b338a611e4a565b6113158982611e68565b61131f6007611edc565b611342604051806060016040528060258152602001613b67602591398a33611ef2565b7febb98688741ffa4c7589bf325de30cf7becb63de567842e1ccdb6cb949fdc82c338a604051611373929190612ded565b60405180910390a1505050505050505050565b6000600560008473ffffffffffffffffffffffffffffffffffffffff1673ffffffffffffffffffffffffffffffffffffffff16815260200190815260200160002060008373ffffffffffffffffffffffffffffffffffffffff1673ffffffffffffffffffffffffffffffffffffffff16815260200190815260200160002060009054906101000a900460ff16905092915050565b6114b08160405160240161142e9190612e31565b6040516020818303038152906040527f41304fac000000000000000000000000000000000000000000000000000000007bffffffffffffffffffffffffffffffffffffffffffffffffffffffff19166020820180517bffffffffffffffffffffffffffffffffffffffffffffffffffffffff8381831617835250505050611f91565b50565b60007f01ffc9a7000000000000000000000000000000000000000000000000000000007bffffffffffffffffffffffffffffffffffffffffffffffffffffffff1916827bffffffffffffffffffffffffffffffffffffffffffffffffffffffff1916149050919050565b60008073ffffffffffffffffffffffffffffffffffffffff166002600084815260200190815260200160002060009054906101000a900473ffffffffffffffffffffffffffffffffffffffff1673ffffffffffffffffffffffffffffffffffffffff1614159050919050565b600033905090565b816004600083815260200190815260200160002060006101000a81548173ffffffffffffffffffffffffffffffffffffffff021916908373ffffffffffffffffffffffffffffffffffffffff160217905550808273ffffffffffffffffffffffffffffffffffffffff166116048361099a565b73ffffffffffffffffffffffffffffffffffffffff167f8c5be1e5ebec7d5bd14f71427d1e84f3dd0314c0f7b2291e5b200ac8c7c3b92560405160405180910390a45050565b60006116558261151d565b611694576040517f08c379a000000000000000000000000000000000000000000000000000000000815260040161168b90612f11565b60405180910390fd5b600061169f8361099a565b90508073ffffffffffffffffffffffffffffffffffffffff168473ffffffffffffffffffffffffffffffffffffffff16148061170e57508373ffffffffffffffffffffffffffffffffffffffff166116f684610541565b73ffffffffffffffffffffffffffffffffffffffff16145b8061171f575061171e8185611386565b5b91505092915050565b8273ffffffffffffffffffffffffffffffffffffffff166117488261099a565b73ffffffffffffffffffffffffffffffffffffffff161461179e576040517f08c379a000000000000000000000000000000000000000000000000000000000815260040161179590613011565b60405180910390fd5b600073ffffffffffffffffffffffffffffffffffffffff168273ffffffffffffffffffffffffffffffffffffffff16141561180e576040517f08c379a000000000000000000000000000000000000000000000000000000000815260040161180590612ed1565b60405180910390fd5b611819838383611fba565b611824600082611591565b6001600360008573ffffffffffffffffffffffffffffffffffffffff1673ffffffffffffffffffffffffffffffffffffffff1681526020019081526020016000206000828254611874919061323b565b925050819055506001600360008473ffffffffffffffffffffffffffffffffffffffff1673ffffffffffffffffffffffffffffffffffffffff16815260200190815260200160002060008282546118cb919061315a565b92505081905550816002600083815260200190815260200160002060006101000a81548173ffffffffffffffffffffffffffffffffffffffff021916908373ffffffffffffffffffffffffffffffffffffffff160217905550808273ffffffffffffffffffffffffffffffffffffffff168473ffffffffffffffffffffffffffffffffffffffff167fddf252ad1be2c89b69c2b068fc378daa952ba7f163c4a11628f55a4df523b3ef60405160405180910390a4505050565b606060008214156119cc576040518060400160405280600181526020017f30000000000000000000000000000000000000000000000000000000000000008152509050611b2c565b600082905060005b600082146119fe5780806119e790613388565b915050600a826119f791906131b0565b91506119d4565b60008167ffffffffffffffff811115611a40577f4e487b7100000000000000000000000000000000000000000000000000000000600052604160045260246000fd5b6040519080825280601f01601f191660200182016040528015611a725781602001600182028036833780820191505090505b5090505b60008514611b2557600182611a8b919061323b565b9150600a85611a9a91906133d1565b6030611aa6919061315a565b60f81b818381518110611ae2577f4e487b7100000000000000000000000000000000000000000000000000000000600052603260045260246000fd5b60200101907effffffffffffffffffffffffffffffffffffffffffffffffffffffffffffff1916908160001a905350600a85611b1e91906131b0565b9450611a76565b8093505050505b919050565b600081604051602001611b449190612be2565b6040516020818303038152906040528051906020012060001c9050919050565b611b6f848484611728565b611b7b84848484611fbf565b611bba576040517f08c379a0000000000000000000000000000000000000000000000000000000008152600401611bb190612e91565b60405180910390fd5b50505050565b606060405180602001604052806000815250905090565b6060611be28261151d565b611c21576040517f08c379a0000000000000000000000000000000000000000000000000000000008152600401611c1890613031565b60405180910390fd5b6000611c2b611bc0565b90506000815111611c4b5760405180602001604052806000815250611c76565b80611c5584611984565b604051602001611c66929190612bf9565b6040516020818303038152906040525b915050919050565b600081600001549050919050565b60606000825190506000811415611cb55760405180602001604052806000815250915050611e45565b60006003600283611cc6919061315a565b611cd091906131b0565b6004611cdc91906131e1565b90506000602082611ced919061315a565b67ffffffffffffffff811115611d2c577f4e487b7100000000000000000000000000000000000000000000000000000000600052604160045260246000fd5b6040519080825280601f01601f191660200182016040528015611d5e5781602001600182028036833780820191505090505b5090506000604051806060016040528060408152602001613b8c604091399050600181016020830160005b86811015611e025760038101905062ffffff818a015116603f8160121c168401518060081b905060ff603f83600c1c1686015116810190508060081b905060ff603f8360061c1686015116810190508060081b905060ff603f831686015116810190508060e01b90508084526004840193505050611d89565b506003860660018114611e1c5760028114611e2c57611e37565b613d3d60f01b6002830352611e37565b603d60f81b60018303525b508484525050819450505050505b919050565b611e64828260405180602001604052806000815250612156565b5050565b611e718261151d565b611eb0576040517f08c379a0000000000000000000000000000000000000000000000000000000008152600401611ea790612f91565b60405180910390fd5b80600660008481526020019081526020016000209080519060200190611ed7929190612392565b505050565b6001816000016000828254019250508190555050565b611f8c838383604051602401611f0a93929190612e53565b6040516020818303038152906040527fe3849f79000000000000000000000000000000000000000000000000000000007bffffffffffffffffffffffffffffffffffffffffffffffffffffffff19166020820180517bffffffffffffffffffffffffffffffffffffffffffffffffffffffff8381831617835250505050611f91565b505050565b60008151905060006a636f6e736f6c652e6c6f679050602083016000808483855afa5050505050565b505050565b6000611fe08473ffffffffffffffffffffffffffffffffffffffff166121b1565b15612149578373ffffffffffffffffffffffffffffffffffffffff1663150b7a02612009611589565b8786866040518563ffffffff1660e01b815260040161202b9493929190612da1565b602060405180830381600087803b15801561204557600080fd5b505af192505050801561207657506040513d601f19601f8201168201806040525081019061207391906126d6565b60015b6120f9573d80600081146120a6576040519150601f19603f3d011682016040523d82523d6000602084013e6120ab565b606091505b506000815114156120f1576040517f08c379a00000000000000000000000000000000000000000000000000000000081526004016120e890612e91565b60405180910390fd5b805181602001fd5b63150b7a0260e01b7bffffffffffffffffffffffffffffffffffffffffffffffffffffffff1916817bffffffffffffffffffffffffffffffffffffffffffffffffffffffff19161491505061214e565b600190505b949350505050565b61216083836121c4565b61216d6000848484611fbf565b6121ac576040517f08c379a00000000000000000000000000000000000000000000000000000000081526004016121a390612e91565b60405180910390fd5b505050565b600080823b905060008111915050919050565b600073ffffffffffffffffffffffffffffffffffffffff168273ffffffffffffffffffffffffffffffffffffffff161415612234576040517f08c379a000000000000000000000000000000000000000000000000000000000815260040161222b90612fb1565b60405180910390fd5b61223d8161151d565b1561227d576040517f08c379a000000000000000000000000000000000000000000000000000000000815260040161227490612eb1565b60405180910390fd5b61228960008383611fba565b6001600360008473ffffffffffffffffffffffffffffffffffffffff1673ffffffffffffffffffffffffffffffffffffffff16815260200190815260200160002060008282546122d9919061315a565b92505081905550816002600083815260200190815260200160002060006101000a81548173ffffffffffffffffffffffffffffffffffffffff021916908373ffffffffffffffffffffffffffffffffffffffff160217905550808273ffffffffffffffffffffffffffffffffffffffff16600073ffffffffffffffffffffffffffffffffffffffff167fddf252ad1be2c89b69c2b068fc378daa952ba7f163c4a11628f55a4df523b3ef60405160405180910390a45050565b82805461239e90613325565b90600052602060002090601f0160209004810192826123c05760008555612407565b82601f106123d957805160ff1916838001178555612407565b82800160010185558215612407579182015b828111156124065782518255916020019190600101906123eb565b5b5090506124149190612418565b5090565b5b80821115612431576000816000905550600101612419565b5090565b6000612448612443846130d1565b6130ac565b90508281526020810184848401111561246057600080fd5b61246b8482856132e3565b509392505050565b60008135905061248281613b0a565b92915050565b60008135905061249781613b21565b92915050565b6000813590506124ac81613b38565b92915050565b6000815190506124c181613b38565b92915050565b600082601f8301126124d857600080fd5b81356124e8848260208601612435565b91505092915050565b60008135905061250081613b4f565b92915050565b60006020828403121561251857600080fd5b600061252684828501612473565b91505092915050565b6000806040838503121561254257600080fd5b600061255085828601612473565b925050602061256185828601612473565b9150509250929050565b60008060006060848603121561258057600080fd5b600061258e86828701612473565b935050602061259f86828701612473565b92505060406125b0868287016124f1565b9150509250925092565b600080600080608085870312156125d057600080fd5b60006125de87828801612473565b94505060206125ef87828801612473565b9350506040612600878288016124f1565b925050606085013567ffffffffffffffff81111561261d57600080fd5b612629878288016124c7565b91505092959194509250565b6000806040838503121561264857600080fd5b600061265685828601612473565b925050602061266785828601612488565b9150509250929050565b6000806040838503121561268457600080fd5b600061269285828601612473565b92505060206126a3858286016124f1565b9150509250929050565b6000602082840312156126bf57600080fd5b60006126cd8482850161249d565b91505092915050565b6000602082840312156126e857600080fd5b60006126f6848285016124b2565b91505092915050565b60006020828403121561271157600080fd5b600061271f848285016124f1565b91505092915050565b6127318161326f565b82525050565b61274081613281565b82525050565b600061275182613117565b61275b818561312d565b935061276b8185602086016132f2565b612774816134be565b840191505092915050565b600061278a82613122565b612794818561313e565b93506127a48185602086016132f2565b6127ad816134be565b840191505092915050565b60006127c382613122565b6127cd818561314f565b93506127dd8185602086016132f2565b80840191505092915050565b600081546127f681613325565b612800818661314f565b9450600182166000811461281b576001811461282c5761285f565b60ff1983168652818601935061285f565b61283585613102565b60005b8381101561285757815481890152600182019150602081019050612838565b838801955050505b50505092915050565b6000612875604d8361314f565b9150612880826134cf565b604d82019050919050565b600061289860098361314f565b91506128a382613544565b600982019050919050565b60006128bb60328361313e565b91506128c68261356d565b604082019050919050565b60006128de601c8361313e565b91506128e9826135bc565b602082019050919050565b6000612901600a8361314f565b915061290c826135e5565b600a82019050919050565b600061292460248361313e565b915061292f8261360e565b604082019050919050565b600061294760198361313e565b91506129528261365d565b602082019050919050565b600061296a600b8361314f565b915061297582613686565b600b82019050919050565b600061298d602c8361313e565b9150612998826136af565b604082019050919050565b60006129b0600d8361314f565b91506129bb826136fe565b600d82019050919050565b60006129d360388361313e565b91506129de82613727565b604082019050919050565b60006129f6602a8361313e565b9150612a0182613776565b604082019050919050565b6000612a1960298361313e565b9150612a24826137c5565b604082019050919050565b6000612a3c602e8361313e565b9150612a4782613814565b604082019050919050565b6000612a5f60028361314f565b9150612a6a82613863565b600282019050919050565b6000612a8260208361313e565b9150612a8d8261388c565b602082019050919050565b6000612aa560318361313e565b9150612ab0826138b5565b604082019050919050565b6000612ac8602c8361313e565b9150612ad382613904565b604082019050919050565b6000612aeb60298361313e565b9150612af682613953565b604082019050919050565b6000612b0e602f8361313e565b9150612b19826139a2565b604082019050919050565b6000612b3160218361313e565b9150612b3c826139f1565b604082019050919050565b6000612b54600a8361314f565b9150612b5f82613a40565b600a82019050919050565b6000612b77601d8361314f565b9150612b8282613a69565b601d82019050919050565b6000612b9a60318361313e565b9150612ba582613a92565b604082019050919050565b6000612bbd60058361314f565b9150612bc882613ae1565b600582019050919050565b612bdc816132d9565b82525050565b6000612bee82846127b8565b915081905092915050565b6000612c0582856127b8565b9150612c1182846127b8565b91508190509392505050565b6000612c2982866127b8565b9150612c3582856127b8565b9150612c4182846127b8565b9150819050949350505050565b6000612c5a82876127e9565b9150612c6682866127b8565b9150612c7282856127e9565b9150612c7e82846127b8565b9150612c89826129a3565b915081905095945050505050565b6000612ca28261288b565b9150612cae82856127b8565b9150612cb982612868565b9150612cc582846127b8565b9150612cd082612a52565b91508190509392505050565b6000612ce7826128f4565b9150612cf382846127b8565b915081905092915050565b6000612d098261295d565b9150612d1582846127b8565b915081905092915050565b6000612d2b82612b47565b9150612d3782846127b8565b915081905092915050565b6000612d4d82612b6a565b9150612d5982846127b8565b915081905092915050565b6000612d6f82612bb0565b9150612d7b82846127b8565b915081905092915050565b6000602082019050612d9b6000830184612728565b92915050565b6000608082019050612db66000830187612728565b612dc36020830186612728565b612dd06040830185612bd3565b8181036060830152612de28184612746565b905095945050505050565b6000604082019050612e026000830185612728565b612e0f6020830184612bd3565b9392505050565b6000602082019050612e2b6000830184612737565b92915050565b60006020820190508181036000830152612e4b818461277f565b905092915050565b60006060820190508181036000830152612e6d818661277f565b9050612e7c6020830185612bd3565b612e896040830184612728565b949350505050565b60006020820190508181036000830152612eaa816128ae565b9050919050565b60006020820190508181036000830152612eca816128d1565b9050919050565b60006020820190508181036000830152612eea81612917565b9050919050565b60006020820190508181036000830152612f0a8161293a565b9050919050565b60006020820190508181036000830152612f2a81612980565b9050919050565b60006020820190508181036000830152612f4a816129c6565b9050919050565b60006020820190508181036000830152612f6a816129e9565b9050919050565b60006020820190508181036000830152612f8a81612a0c565b9050919050565b60006020820190508181036000830152612faa81612a2f565b9050919050565b60006020820190508181036000830152612fca81612a75565b9050919050565b60006020820190508181036000830152612fea81612a98565b9050919050565b6000602082019050818103600083015261300a81612abb565b9050919050565b6000602082019050818103600083015261302a81612ade565b9050919050565b6000602082019050818103600083015261304a81612b01565b9050919050565b6000602082019050818103600083015261306a81612b24565b9050919050565b6000602082019050818103600083015261308a81612b8d565b9050919050565b60006020820190506130a66000830184612bd3565b92915050565b60006130b66130c7565b90506130c28282613357565b919050565b6000604051905090565b600067ffffffffffffffff8211156130ec576130eb61348f565b5b6130f5826134be565b9050602081019050919050565b60008190508160005260206000209050919050565b600081519050919050565b600081519050919050565b600082825260208201905092915050565b600082825260208201905092915050565b600081905092915050565b6000613165826132d9565b9150613170836132d9565b9250827fffffffffffffffffffffffffffffffffffffffffffffffffffffffffffffffff038211156131a5576131a4613402565b5b828201905092915050565b60006131bb826132d9565b91506131c6836132d9565b9250826131d6576131d5613431565b5b828204905092915050565b60006131ec826132d9565b91506131f7836132d9565b9250817fffffffffffffffffffffffffffffffffffffffffffffffffffffffffffffffff04831182151516156132305761322f613402565b5b828202905092915050565b6000613246826132d9565b9150613251836132d9565b92508282101561326457613263613402565b5b828203905092915050565b600061327a826132b9565b9050919050565b60008115159050919050565b60007fffffffff0000000000000000000000000000000000000000000000000000000082169050919050565b600073ffffffffffffffffffffffffffffffffffffffff82169050919050565b6000819050919050565b82818337600083830152505050565b60005b838110156133105780820151818401526020810190506132f5565b8381111561331f576000848401525b50505050565b6000600282049050600182168061333d57607f821691505b6020821081141561335157613350613460565b5b50919050565b613360826134be565b810181811067ffffffffffffffff8211171561337f5761337e61348f565b5b80604052505050565b6000613393826132d9565b91507fffffffffffffffffffffffffffffffffffffffffffffffffffffffffffffffff8214156133c6576133c5613402565b5b600182019050919050565b60006133dc826132d9565b91506133e7836132d9565b9250826133f7576133f6613431565b5b828206905092915050565b7f4e487b7100000000000000000000000000000000000000000000000000000000600052601160045260246000fd5b7f4e487b7100000000000000000000000000000000000000000000000000000000600052601260045260246000fd5b7f4e487b7100000000000000000000000000000000000000000000000000000000600052602260045260246000fd5b7f4e487b7100000000000000000000000000000000000000000000000000000000600052604160045260246000fd5b6000601f19601f8301169050919050565b7f222c20226465736372697074696f6e223a20224120737175617265207769746860008201527f20776f7264732e222c2022696d616765223a22646174613a696d6167652f737660208201527f672b786d6c3b6261736536342c00000000000000000000000000000000000000604082015250565b7f7b226e616d65223a220000000000000000000000000000000000000000000000600082015250565b7f4552433732313a207472616e7366657220746f206e6f6e20455243373231526560008201527f63656976657220696d706c656d656e7465720000000000000000000000000000602082015250565b7f4552433732313a20746f6b656e20616c7265616479206d696e74656400000000600082015250565b7f54484952445f574f524400000000000000000000000000000000000000000000600082015250565b7f4552433732313a207472616e7366657220746f20746865207a65726f2061646460008201527f7265737300000000000000000000000000000000000000000000000000000000602082015250565b7f4552433732313a20617070726f766520746f2063616c6c657200000000000000600082015250565b7f5345434f4e445f574f5244000000000000000000000000000000000000000000600082015250565b7f4552433732313a206f70657261746f7220717565727920666f72206e6f6e657860008201527f697374656e7420746f6b656e0000000000000000000000000000000000000000602082015250565b7f3c2f746578743e3c2f7376673e00000000000000000000000000000000000000600082015250565b7f4552433732313a20617070726f76652063616c6c6572206973206e6f74206f7760008201527f6e6572206e6f7220617070726f76656420666f7220616c6c0000000000000000602082015250565b7f4552433732313a2062616c616e636520717565727920666f7220746865207a6560008201527f726f206164647265737300000000000000000000000000000000000000000000602082015250565b7f4552433732313a206f776e657220717565727920666f72206e6f6e657869737460008201527f656e7420746f6b656e0000000000000000000000000000000000000000000000602082015250565b7f45524337323155524953746f726167653a2055524920736574206f66206e6f6e60008201527f6578697374656e7420746f6b656e000000000000000000000000000000000000602082015250565b7f227d000000000000000000000000000000000000000000000000000000000000600082015250565b7f4552433732313a206d696e7420746f20746865207a65726f2061646472657373600082015250565b7f45524337323155524953746f726167653a2055524920717565727920666f722060008201527f6e6f6e6578697374656e7420746f6b656e000000000000000000000000000000602082015250565b7f4552433732313a20617070726f76656420717565727920666f72206e6f6e657860008201527f697374656e7420746f6b656e0000000000000000000000000000000000000000602082015250565b7f4552433732313a207472616e73666572206f6620746f6b656e2074686174206960008201527f73206e6f74206f776e0000000000000000000000000000000000000000000000602082015250565b7f4552433732314d657461646174613a2055524920717565727920666f72206e6f60008201527f6e6578697374656e7420746f6b656e0000000000000000000000000000000000602082015250565b7f4552433732313a20617070726f76616c20746f2063757272656e74206f776e6560008201527f7200000000000000000000000000000000000000000000000000000000000000602082015250565b7f46495253545f574f524400000000000000000000000000000000000000000000600082015250565b7f646174613a6170706c69636174696f6e2f6a736f6e3b6261736536342c000000600082015250565b7f4552433732313a207472616e736665722063616c6c6572206973206e6f74206f60008201527f776e6572206e6f7220617070726f766564000000000000000000000000000000602082015250565b7f434f4c4f52000000000000000000000000000000000000000000000000000000600082015250565b613b138161326f565b8114613b1e57600080fd5b50565b613b2a81613281565b8114613b3557600080fd5b50565b613b418161328d565b8114613b4c57600080fd5b50565b613b58816132d9565b8114613b6357600080fd5b5056fe416e204e465420772f20494420257320686173206265656e206d696e74656420746f2025734142434445464748494a4b4c4d4e4f505152535455565758595a6162636465666768696a6b6c6d6e6f707172737475767778797a303132333435363738392b2fa2646970667358221220df39b754a2c4b7a92425b470bc82d1f1abf3f6954f446b1a3fd03ea80391e2f464736f6c6343000804003354686973206973206d79206669727374204e465420636f6e74726163742c206f682079656168213c73766720786d6c6e733d27687474703a2f2f7777772e77332e6f72672f323030302f73766727207072657365727665417370656374526174696f3d27784d696e594d696e206d656574272076696577426f783d273020302033353020333530273e3c7374796c653e2e62617365207b2066696c6c3a2077686974653b20666f6e742d66616d696c793a2073657269663b20666f6e742d73697a653a20323470783b207d3c2f7374796c653e3c726563742077696474683d273130302527206865696768743d2731303025272066696c6c3d27272f3e3c7465787420783d273530252720793d273530252720636c6173733d27626173652720646f6d696e616e742d626173656c696e653d276d6964646c652720746578742d616e63686f723d276d6964646c65273e",
  "linkReferences": {},
  "deployedLinkReferences": {}
}